:10000000830100308A0017288C0003088301A800B0
:100010000B1D11280B118312A10A0319A20AEC303F
:1000200081008312280883008C0E0C0E09000D300D
:100030008400263020208301B22A04068001840A2D
:080040000406031D1D28003415
:1004E60083121108080083168514831208008312EC
:1004F6009201920A0800831276222A300A23EA2AF7
:100506008312A3008312BF230030BF2B83168501FD
:1005160083120508A000080083124E238D000A23CB
:100526000D08BF2B83124E23A3000A2323080800BD
:1005360083121F0886009A01980199010800831208
:1005460020142015A0112008850008008312060E2D
:10055600F039A300A30E0F30A30523080800831665
:100566008501860183127E22850186018F22B92AA2
:1005760083120508A0002014A0102011A011200845
:10058600850008008312A92217048600120BCE2AC2
:10059600170E0F398500910108008312A30004305D
:1005A600A4005330A500A50BD62AA40BD42AA30B6E
:1005B600D22A08000430831686008312A101A20104
:1005C600831681018B17EC30831281000800831695
:1005D6008601103083129B0020309C0040309D0025
:1005E60080309E009F019A019801990108000F3002
:1005F6008316860510308312930020309400403015
:1006060095008030960097019101920108008312AF
:10061600A50005100C30A3001E30A400A40B112B5E
:10062600251805142518182B05100314A50CA30B63
:100636000F2B0000080083121108033A031D252B17
:100646009101262B910A1108133E84008312A922D8
:1006560000048600120B08001108133E8400000EE9
:100666000F398500080083129108031D3D2B0330C6
:1006760091003E2B91031108133E84008312A92298
:1006860000048600120B08001108133E8400000EB9
:100696000F3985000800831285184E2B1030A400F0
:1006A600A40B532B85184E2B0830A30090011E3047
:1006B600A400A40B5C2B031085180314900CA30B49
:1006C6005A2B100808008312A300A4010130A600CB
:1006D6002408073CA700A70A722B0310A60DA70B38
:1006E600702B2608230503197A2B20167B2B201244
:1006F6002008850001308312D022A014200885002E
:100706000130D022A01020088500A40A0830240257
:1007160003180800692B32308312D0228614033066
:10072600A300A30B942B86100330A300A30B992BD5
:10073600061D9B2BA101A201EC3081008B16061928
:10074600A22B8B1200302202043003192102031857
:10075600AF2B0330A100A201013022024A30031957
:100766002102031CBA2B4A30A1000130A200220844
:10077600A7002108A60008008312A300A3199A194E
:10078600D52B231DCE2B1808033A031DCC2B98011D
:10079600D52B980AD52B9808031DD42B0330980027
:1007A600D52B9803A3189A18E92B231CE22B1908BA
:1007B600033A031DE02B9901E92B990AE92B9908C5
:1007C600031DE82B03309900E92B99032308103900
:1007D600013A031DF02B8515F12B851118081B3ED8
:1007E60084000008A60019081B3E8400000E0F397D
:0A07F6002604860023089A0008007C
:02400E00F13F80
:00000001FF
