:10000000830100308A0017288C0003088301BE009A
:100010000B1D11280B118312A00A0319A10AEC3041
:10002000810083123E0883008C0E0C0E09000D30F7
:100030008400353020208301942804068001840A3E
:100040000406031D1D2800348312BC00BD1B2F288D
:100050003D088A003C08BC0A0319BD0A82008313CC
:100060003D1883173C08BC0A8400000808005B3474
:0C007000253464345D340D340A3400344F
:1000B20000300C2A83121008080083129101910A61
:1000C20008008316851483120800831262202A30E6
:1000D2000921BE2883168501831205089F000800A6
:1000E2008312A2008312D3210030D329831232213A
:1000F200A20009212208080083121E088600990125
:1001020097019801080083121F141F159F111F08E1
:10011200850008008312060EF039A200A20E0F30ED
:10012200A205220808008316850186018312662033
:1001320085018601F8209B28831205089F001F1461
:100142009F101F119F111F088500080083128B202A
:1001520016048600110BB028160E0F398500900187
:100162000800B5000030361835070310B50D03102E
:10017200B60CB60803190800B428043083168600AA
:100182008312A001A101831681018B17EC30831227
:10019200810008008312A5000430A6005330A70096
:1001A200A70BD128A60BCF28A50BCD2808000F300E
:1001B200831686051030831292002030930040305F
:1001C20094008030950096019001910108008316F9
:1001D2008601103083129A0020309B0040309C0030
:1001E20080309D009E0199019701980108008312B9
:1001F200A22135088D0036088E003730A500003068
:10020200A6000D08A2000E08A3002230A40059285F
:100212008312B40005100C30B2001E30B300B30BD1
:100222001029341805143418172905100314B40CB6
:10023200B20B0E2900000800B901BA010310B80C74
:10024200B70C031C2B293508B90736080318360AE0
:10025200BA070310B50DB60D370838040319003478
:100262001F298312851832291030A300A30B3729C6
:10027200851832290830A2008F011E30A300A30B7B
:1002820040290310851803148F0CA20B3E290F0876
:10029200080083129008031D51290330900052294F
:1002A20090031008123E840083128B200004860003
:1002B200110B08001008123E8400000E0F39850051
:1002C200080083121008033A031D692990016A2964
:1002D200900A1008123E840083128B2000048600CC
:1002E200110B08001008123E8400000E0F39850021
:1002F20008008312A200A3010130B5002308073CC5
:10030200B600B60A86290310B50DB60B8429350846
:10031200220503198E291F168F291F121F08850017
:1003220001308312CB209F141F0885000130CB209F
:100332009F101F088500A30A083023020318080033
:100342007D2932308312CB2086140330A400A40B03
:10035200A82986100330A400A40BAD29061DAF29DD
:10036200A001A101EC3081008B160619B6298B126F
:10037200003021020430031920020318C32903307C
:10038200A000A101013021024A3003192002031CFE
:10039200CE294A30A0000130A1002108B600200871
:1003A200B50008008312A200A2199919E929221D99
:1003B200E2291708033A031DE0299701E929970A60
:1003C200E9299708031DE82903309700E9299703D3
:1003D200A2189918FD29221CF6291808033A031DB0
:1003E200F4299801FD29980AFD299808031DFC2982
:0E03F20003309800FD29980317081A3E840076
:100400000008B50018081A3E8400000E0F393504A4
:1004100086002208990008008312AD00AB01240871
:10042000A800B32B2C08253A031DA62BFF30A900EA
:10043000AA01A701702BAD080319212A2D088400F9
:1004400080012B0808000230A80728028400000859
:10045000A42BA70A2F2A0830A907FE30A9070230CB
:10046000A807280284000008AE00840A0008AF0034
:100470002718AF1F422AAE09AF09AE0A0319AF0A07
:10048000AA03432AA7010B30A9072908B700B8011E
:100490002F08B6002E08B500C6233508AC00290881
:1004A000B700B8012E08B5002F08B600C6233908DA
:1004B000AE003A08AF00B001B00AB10131082F0216
:1004C000031D642A30082E02031C812A2908B70064
:1004D000B8013008B5003108B6001D213908B00058
:1004E0003A08B100AA035E2AAB0AAD0803197E2AB6
:1004F0002D08840020308000AD0A812A203083122C
:100500000921AA032A08803A7F3E0318742A271C6F
:10051000942AAB0AAD080319912A2D0884002D30C6
:10052000C42A2D30831209212908B700B8013008E8
:10053000B5003108B600C6233908B0003A08B1004A
:1005400030040319CA2A3108B8003008B7002F0850
:10055000B6002E08B500C6233908B5003A08B60023
:100560002908B700B801C6233508AA00803A763EAC
:10057000031CBC2A0730AA07AB0AAD080319C72A17
:100580002D0884002A08303E8000AD0A942A2A08EB
:10059000303E922A0A302C02031CD02A0730AC07C6
:1005A000AB0AAD080319D92A2D0884002C08303E67
:1005B000AD2B2C08303EB12BAB0AAD080319E62A4F
:1005C0002D08840020308000AD0AE92A20308312F3
:1005D0000921AA032A08803A7E3E0318DC2A023049
:1005E000A807280284000008AC00A62B0230A80748
:1005F000280284000008B000840A0008B100AC01A1
:100600002C083007BC003108BD003C080318BD0AA7
:100610002420003803190E2BAC0A002B29082C02C9
:100620000318142B2C08A9002908AA1B3F2BFF3AFA
:100630002A07031C3F2BAB0AAD080319252B2D08F5
:10064000840020308000AD0A282B2030831209213D
:10065000AA03142B3108BD0030082420AC00B00AD6
:100660000319B10AAB0AAD0803193C2B2D0884000D
:100670002C088000AD0A3F2B2C0883120921A90306
:10068000290F2A2BB32B2608BD00250824202A3A3F
:10069000031D502B0230A8072802840000086C2B91
:1006A0002608BD0025082420D03EA900A50A03196C
:1006B000A60A2608BD0025082420AC0030302C02F4
:1006C000031C702B3A302C020318702B0A30B60032
:1006D0002908B2202C07D03EA900A50A0319A60AB2
:1006E0002608BD002508A50A0319A60A2420AC0087
:1006F000003A03191B2A2A3A0319232A043A031938
:10070000432B763A03192B2A3B3A0319EA2A073A74
:100710000319292A0B3A03192D2A1C3A0319F62A20
:10072000063A03192F2A0D3A03192B2A30302C02CE
:10073000031CA62B3A302C020318A62B0A30B60055
:100740002A08B2202C07D03EAA00702BAB0AAD08B5
:100750000319B02B2D0884002C088000AD0AB32BA0
:100760002C08831209212608BD002508A50A0319B3
:10077000A60A2420AC00AC08031D122AAD080319F8
:10078000C42B2D08840080012B080800BB01B9018F
:10079000BA0137083804031DD02BB501B601003467
:1007A0001F30BB040310BB0AB70DB80D031CD32BBD
:1007B000B80CB70C38083602031DE02B3708350299
:1007C000031CE82B3708B5023808031C380AB602A8
:1007D000B90DBA0DBB0BBB1AD82BBB1FF42BB90933
:1007E000B90A0319BA03BA093908B7003A08B800B8
:1007F0003B1F0034B509B50A0319B603B609003426
:02400E00F13F80
:00000001FF
