:10000000830100308A0017288C0003088301A800B0
:100010000B1D11280B118312A10A0319A20AEC303F
:1000200081008312280883008C0E0C0E09000D300D
:100030008400263020208301B52A04068001840A2A
:080040000406031D1D28003415
:1004EC0083121108080083168514831208008312E6
:1004FC009201920A0800831279222A300D23ED2AE8
:10050C008312A3008312C2230030C22B83168501F1
:10051C0083120508A0000800831251238D000D23BF
:10052C000D08C22B83125123A3000D2323080800AE
:10053C0083121F0886009A01980199010800831202
:10054C0020142015A0112008850008008312060E27
:10055C00F039A300A30E0F30A3052308080083165F
:10056C008501860183128122850186019222BC2A93
:10057C0083120508A0002014A0102011A01120083F
:10058C00850008008312AC2217048600120BD12AB6
:10059C00170E0F398500910108008312A300043057
:1005AC00A4005330A500A50BD92AA40BD72AA30B62
:1005BC00D52A08000430831686008312A101A201FB
:1005CC00831681018B17EC3083128100080083168F
:1005DC008601103083129B0020309C0040309D001F
:1005EC0080309E009F019A019801990108000F30FC
:1005FC00831686051030831293002030940040300F
:10060C0095008030960097019101920108008312A9
:10061C00A50005100C30A3001E30A400A40B142B55
:10062C002518051425181B2B05100314A50CA30B5A
:10063C00122B0000080083121108033A031D282B0B
:10064C009101292B910A1108133E84008312AC22CC
:10065C0000048600120B08001108133E8400000EE3
:10066C000F398500080083129108031D402B0330BD
:10067C009100412B91031108133E84008312AC228C
:10068C0000048600120B08001108133E8400000EB3
:10069C000F398500080083128518512B1030A400E7
:1006AC00A40B562B8518512B0830A30090011E303B
:1006BC00A400A40B5F2B031085180314900CA30B40
:1006CC005D2B100808008312A300A4010130A600C2
:1006DC002408073CA700A70A752B0310A60DA70B2F
:1006EC00732B2608230503197D2B20167E2B201235
:1006FC002008850001308312D322A0142008850025
:10070C000130D322A01020088500A40A083024024E
:10071C00031808006C2B32308312D322861403305A
:10072C00A300A30B972B86100330A300A30B9C2BC9
:10073C00061D9E2BA101A201EC3081008B1606191F
:10074C00A52B8B120030220204300319210203184E
:10075C00B22B0330A100A201013022024A3003194E
:10076C002102031CBD2B4A30A1000130A20022083B
:10077C00A7002108A60008008312A300231EC82B83
:10078C008515C92B8511A3199A19DD2B231DD62B81
:10079C001808033A031DD42B9801DD2B980ADD2B86
:1007AC009808031DDC2B03309800DD2B9803A3184D
:1007BC009A18F12B231CEA2B1908033A031DE82B7A
:1007CC009901F12B990AF12B9908031DF02B033099
:1007DC009900F12B990318081B3E84000008A60011
:1007EC0019081B3E8400000E0F39260486002308CE
:0407FC009A00080057
:02400E00F13F80
:00000001FF
